:020000040800F2
:100000000069002045010008C1200008C320000845
:10001000C7200008CB200008CF2000080000000007
:10002000000000000000000000000000D3200008D5
:10003000D520000800000000D7200008D9200008C3
:100040005F0100085F0100085F0100085F01000810
:100050005F0100085F0100085F0100085F01000800
:100060005F0100085F0100085F0100085F010008F0
:100070005F0100085F0100085F0100085F010008E0
:100080005F0100085F0100085F0100085F010008D0
:100090005F0100085F0100085F0100085F010008C0
:1000A0005F0100085F0100085F0100085F010008B0
:1000B0005F0100085F0100085F0100085F010008A0
:1000C0005F0100085F0100085F0100085F01000890
:1000D0005F0100085F010008E12000085F010008DF
:1000E0005F0100085F0100085F0100085F01000870
:1000F0005F0100085F0100085F0100085F01000860
:100100005F0100085F0100085F0100085F0100084F
:100110005F0100085F0100085F0100085F0100083F
:100120005F0100085F0100085F0100085F0100082F
:10013000DFF80CD006F028FB0048004755200008E7
:10014000006900200648804706480047FEE7FEE7B2
:10015000FEE7FEE7FEE7FEE7FEE7FEE7FEE7FEE777
:1001600047020008310100080CB500200190009002
:100170006C48006840F480306A49086000BF6948F4
:10018000006800F4003000900198401C0190009835
:1001900018B90198B0F5A06FF1D16248006800F479
:1001A000003010B10120009001E000200090009884
:1001B000012843D15C48006840F010005A490860AB
:1001C0000846006820F0030008600846006840F018
:1001D0000200086053484068524948600846406839
:1001E00048600846406840F48060486008464068BF
:1001F00020F47C1048600846406840F4E8104860ED
:100200000846006840F08070086000BF45480068FC
:1002100000F000700028F9D04248406820F0030048
:10022000404948600846406840F00200486000BF0E
:100230003C48406800F00C000828F9D10CBD10B50E
:10024000FFF792FF10BD10B53648006840F001007E
:1002500034490860084640683449084031494860DC
:1002600008460068324908402E4908600846006880
:1002700020F4802008600846406820F4FE004860B2
:100280004FF41F008860FFF7DAFF4FF00060294944
:10029000086010BD10B5002100200022214B5B68D2
:1002A00003F00C0121B1042906D0082928D107E068
:1002B000214B224C236027E01F4B204C236023E07E
:1002C000184B5B6803F47010164B5B6803F48032C4
:1002D000022303EB904022B9194B4343174C236090
:1002E0000DE0104B5B6803F4003323B1144B434320
:1002F000124C236003E0104B4343104C236003E097
:100300000D4B0E4C236000BF00BF064B5B68C3F370
:1003100003130C4CE15C094B1B68CB40074C23607A
:1003200010BD000000100240002002400000FFF855
:10033000FFFFF6FE08ED00E000127A00000000204A
:1003400000093D000400002031490143314A116099
:10035000704770B5002100230F22C47804B32D4CE0
:10036000246804F4E064C4F5E064210AC1F10403E4
:10037000CA40447804FA03F1847814402143090107
:10038000254C0678A155047804F01F050124AC40E3
:1003900005786D11AD0005F1E025C5F8004109E0D3
:1003A000047804F01F050124AC401C4D067876113A
:1003B00045F8264070BD1A4A0A400243154B1B1FE0
:1003C0001A60704739B1134A121D12680243114B6B
:1003D0001B1D1A6006E00F4A121D126882430D4B66
:1003E0001B1D1A607047042808D14FF0E0210969ED
:1003F00041F004014FF0E022116107E04FF0E021ED
:10040000096921F004014FF0E022116170470000FA
:100410000000FA050CED00E000E400E080E100E0FF
:1004200080FFFF1F10B50446CC48844208D101214B
:10043000042000F02DFB0021042000F029FB46E001
:10044000C748844208D10121082000F021FB002187
:10045000082000F01DFB3AE0C248844208D1012187
:10046000102000F015FB0021102000F011FB2EE001
:10047000BD48844208D10121202000F009FB002161
:10048000202000F005FB22E0B848844208D1012179
:10049000402000F0FDFA0021402000F0F9FA16E0BB
:1004A000B348844208D10121802000F0F1FA0021F4
:1004B000802000F0EDFA0AE0AE48844207D1012125
:1004C000801500F0E5FA0021A01500F0E1FA10BD5A
:1004D00010B50121084600F0DBFA0021012000F0F0
:1004E000D7FA10BD2DE9F041024600250026002074
:1004F00000230024002791F803C00CF00F0591F8A9
:1005000003C00CF0100CBCF1000F03D091F802C036
:100510004CEA050591F800C0BCF1000F31D0146819
:1005200000202BE04FF0010C0CFA00F3B1F800C0F2
:100530000CEA03069E4220D183004FF00F0C0CFA08
:1005400003F7BC4305FA03FC4CEA040491F803C02A
:10055000BCF1280F06D14FF0010C0CFA00FCC2F8D8
:1005600014C00AE091F803C0BCF1480F05D14FF068
:10057000010C0CFA00FCC2F810C0401C0828D1D3B2
:100580001460B1F800C0BCF1FF0F34DD54680020E6
:100590002EE000F1080C4FF0010808FA0CF3B1F856
:1005A00000C00CEA03069E4221D183004FF00F0CDD
:1005B0000CFA03F7BC4305FA03FC4CEA040491F877
:1005C00003C0BCF1280F05D100F1080C08FA0CF8A3
:1005D000C2F8148091F803C0BCF1480F07D100F1B4
:1005E000080C4FF0010808FA0CF8C2F81080401C03
:1005F0000828CED35460BDE8F0814FF6FF7101802A
:10060000022181700421C170704702460020936866
:100610000B400BB1012000E00020704701468868C4
:1006200080B2704702460020D3680B400BB1012016
:1006300000E0002070470146C86880B27047016141
:100640007047416170470AB1016100E04161704744
:10065000C16070474FF480320A43826181618261D8
:1006600082698269704702460020434B18684FF642
:100670008073184040EA021008433F4B18607047EF
:100680003E49C8617047F0B50A46002300240021A6
:10069000002500F00046B6F1004F02D1364EF16958
:1006A00001E0354E7168C0F3034583B200F4401693
:1006B000B6F5401F08D121F070612F4E766826F004
:1006C00070662D4F7E6012E000F48016B6F5801F34
:1006D00006D1032606FA05F4A14341F0706106E055
:1006E000460D360103FA06F6B14341F0706122B1BE
:1006F000460D360103FA06F6314300F00046B6F126
:10070000004F02D11C4EF16101E01B4E7160F0BD43
:1007100030B500228B071C0F0F2303FA04F2164B8F
:1007200008338C1053F824309343134C08348D1045
:1007300044F8253023468C1053F824308C07240FBE
:1007400000FA04F423430C4C08348D1044F825308F
:1007500030BD0A49DC3108607047000000080140E4
:10076000000C01400010014000140140001801403D
:10077000001C014000200140000001400000204218
:10078000DF48006840F00100DD4908600846406825
:10079000DC490840DA49486008460068DA49084000
:1007A000D74908600846006820F4802008600846A1
:1007B000406820F4FE0048604FF41F0088607047D6
:1007C000CF49096821F48031CD4A1160114609688A
:1007D00021F480211160B0F5803F03D0B0F5802F67
:1007E0000ED106E0C649096841F48031C44A11605F
:1007F00007E0C349096841F4A021C14A116000E043
:1008000000BF00BF704710B5014600220023002042
:100810004A11012A02D1BA4C236806E0022A02D109
:10082000B74C236A01E0B64C636A01F01F02012451
:1008300094401C400CB1012000E0002010BD38B5F0
:10084000002000900024002500BF3120FFF7DBFFCF
:1008500005460098401C00900098B0F5A06F01D0AC
:10086000002DF2D03120FFF7CEFF08B1012400E0C7
:100870000024204638BD01460020A14A106820F01F
:10088000F80040EAC10010607047A0490860704756
:10089000024600209A4B586820F47C1042EA01037B
:1008A0001843974B5860704798490866704701464F
:1008B0000020934A506820F00300084350607047BE
:1008C0008F48406800F00C007047014600208C4AB9
:1008D000506820F0F0000843506070470146002047
:1008E000874A506820F4E060084350607047014632
:1008F0000020834A506820F4605040EAC1005060F4
:10090000704729B17E4A527A02437D4B5A7204E005
:100910007B4A527A82437A4B5A7270477B49D8316C
:100920000860704701460020754A506820F4404036
:100930000843506070470021714A20321170704A9C
:1009400082F82010012802D004280AD104E00121F5
:100950006B4A2032117005E00521694A203211707E
:1009600000E000BF00BF70476949086070476449F4
:10097000096A0143624A1162704765494439086057
:10098000704730B500210022002400235C4D6D68C3
:1009900005F00C0121B1042905D0082923D105E077
:1009A0005C4D056022E05B4D05601FE0544D6D68B5
:1009B00005F47012524D6D6805F48034022505EB84
:1009C00092421CB9544D554305600BE04C4D6D6887
:1009D00005F400351DB1504D5543056002E04D4D05
:1009E0005543056002E04B4D056000BF00BF444D1C
:1009F0006D6805F0F0010909484D6B5C0568DD4044
:100A000045603F4D6D6805F4E061090A434D6B5C3C
:100A10004568DD4085603A4D6D6805F46051C90A4E
:100A20003E4D6B5C4568DD40C560354D6D6805F435
:100A30004041890B3A4D6B5CC568B5FBF3F5056128
:100A400030BD29B12E4A526902432D4B5A6104E050
:100A50002B4A526982432A4B5A61704729B1284A6E
:100A600092690243264B9A6104E0254A92698243C7
:100A7000234B9A61704729B1214AD2690243204B26
:100A8000DA6104E01E4AD26982431D4BDA61704785
:100A900029B11B4AD2680243194BDA6004E0184AB4
:100AA000D2688243164BDA60704729B1144A126942
:100AB0000243134B1A6104E0114A12698243104B3E
:100AC0001A61704712494039086070470F49C8647D
:100AD00070470B49C87170470948406A40F0807000
:100AE00007494862704701460020054A92680A405B
:100AF0000AB1012000E00020704701498872704768
:100B0000001002400000FFF8FFFFF6FE0000424226
:100B10008004424200127A0000093D0014000020C7
:100B20002400002010B50446BE48844208D10121AB
:100B30008014FFF7ADFF0021A014FFF7A9FF16E016
:100B4000B948844208D101210014FFF7AEFF00210B
:100B50002014FFF7AAFF0AE0B448844207D101211C
:100B6000C013FFF7A2FF0021E013FFF79EFF10BDA7
:100B700010B50022028802F441520B884C882343AE
:100B80008C882343CC8823430C8923434C892343FB
:100B90008C892343CC8923431A430280838B4FF2F1
:100BA000FF74234083830B8A038210BD2DE9F04F2D
:100BB00085B005460C464FF0000902274FF00008AB
:100BC0004FF0010B0026B246A88B4FF240010840BF
:100BD000A88302202884B5F81C90A068022801D1BF
:100BE00000BF38E0A08810B94FF0010B01E04FF0D2
:100BF000020B8D48854200D100E000BF6846FFF738
:100C0000C0FEDDF800A0E088B0F5007F0AD14FEA11
:100C10001A2000EB80004000A168B0FBF1F0401DFD
:100C200086B20BE04FEA4B10BAFBF0F000EB80000D
:100C30004000A168B0FBF1F0401D86B20A20B6FB6F
:100C4000F0F606F00108A6EB0800C0F34F074FF6D8
:100C5000FF7000EA0828022F01DBFF2F02DD0227C8
:100C60004FF00008E08840EA080038432884A08854
:100C7000A1890843618808432188084340F4006043
:100C800040EA0909A5F81C9005B0BDE8F08F0021E5
:100C9000018041808180C180018141818181C18148
:100CA0000721018270470021018041808180C1803D
:100CB0000221816000218181704721B1028842F0C8
:100CC0004002028004E002884FF6BF731A4002809F
:100CD000704721B1828B42F48062828304E0828B70
:100CE0004FF6FF331A408283704730B5002400234B
:100CF0000C110125A540ABB21AB185881D43858032
:100D000002E085889D43858030BD1AB183880B43FE
:100D1000838002E083888B438380704781817047A2
:100D20000146888970474FF6FF62914204D00288DD
:100D300042F48072028004E002884FF6FF631A409A
:100D40000280704721B1828842F00402828004E070
:100D500082884FF6FB731A408280704702884FF2F8
:100D6000FF731A40028002880A430280704701889C
:100D700041F480510180704721B1028842F4005251
:100D8000028004E002884DF6FF731A40028070472B
:100D900002460020012901D0108B00E0908A7047A4
:100DA0000146088A7047B1F5804F04D1028842F4A9
:100DB0008042028004E002884BF6FF731A400280F2
:100DC00070470246002013890B400BB1012000E060
:100DD00000207047CA4302817047F0B502460020E8
:100DE00000240023002501F00F070126BE40B4B205
:100DF0000B1101269E40B3B2968806EA03051689B8
:100E0000264016B10DB1012000E00020F0BD10B564
:100E1000002201F00F040123A3409AB2D3430381BF
:100E200010BD00000030014000380040003C004090
:100E300010B50446FE48844208D10121C014FFF7D2
:100E400027FE0021E014FFF723FEC4E0B4F1804F39
:100E500008D101210846FFF728FE00210120FFF7F5
:100E600024FEB8E0F348844208D101210220FFF7B4
:100E70001CFE00210220FFF718FEACE0EE48844281
:100E800008D101210420FFF710FE00210420FFF704
:100E90000CFEA0E0E948844208D101210820FFF7B8
:100EA00004FE00210820FFF700FE94E0E44884429D
:100EB00008D101211020FFF7F8FD00211020FFF7D5
:100EC000F4FD88E0DF48844208D101212020FFF7AB
:100ED000ECFD00212020FFF7E8FD7CE0DA488442A9
:100EE00008D101214014FFF7D3FD00216014FFF762
:100EF000CFFD70E0D548844209D10121C804FFF735
:100F0000C7FD00214FF40020FFF7C2FD63E0D04889
:100F1000844209D101210805FFF7BAFD00214FF4F1
:100F20008010FFF7B5FD56E0CA48844209D101217F
:100F30004805FFF7ADFD00214FF40010FFF7A8FDB5
:100F400049E0C548844208D101214020FFF7ADFDAA
:100F500000214020FFF7A9FD3DE0C048844208D1B0
:100F600001218020FFF7A1FD00218020FFF79DFDDA
:100F700031E0BB48844208D101218015FFF795FD7F
:100F80000021A015FFF791FD25E0B648844209D164
:100F900001210804FFF77CFD00214FF48030FFF7AA
:100FA00077FD18E0B048844209D101214804FFF7D9
:100FB0006FFD00214FF40030FFF76AFD0BE0AB48F6
:100FC000844208D101218804FFF762FD00214FF41B
:100FD0008020FFF75DFD10BD00220288944B9842EF
:100FE0000ED0994B98420BD0B0F1804F08D0914B66
:100FF000984205D0904B984202D0904B984204D131
:101000004FF68F731A404B881A438D4B984207D086
:101010008C4B984204D04FF6FF431A40CB881A43BA
:1010200002808B8883850B880385814B98420BD087
:10103000854B984208D08B4B984205D08A4B9842FA
:1010400002D08A4B984201D10B7A03860123838216
:10105000704770B5002400220023058C4FF6FE7601
:1010600035400584028C8388048B4FF68F752C40A5
:10107000B51E2C400D882C43751E2A400D892A432D
:101080004D882A436A4DA8420BD06F4DA84208D024
:10109000744DA84205D0744DA84202D0734DA842A9
:1010A00013D14FF6F7752A404D892A434FF6FB7549
:1010B0002A408D882A434FF6FF652B404FF6FF5597
:1010C0002B408D892B43CD892B4383800483CD888E
:1010D0008586028470BD70B5002400220023058C33
:1010E0004FF6EF7635400584028C8388048B48F6F2
:1010F000FF752C404FF6FF452C400D884FF6FF76CC
:1011000006EA05252C434FF6DF752A400D8906EACD
:1011100005152A434D8806EA05152A43444DA84281
:1011200002D0494DA8421DD14FF67F752A404D8906
:101130004FF6FF7606EA05152A434FF6BF752A409B
:101140008D8806EA05152A434FF6FF352B404FF2EE
:10115000FF752B408D8906EA85052B43CD8906EA6C
:1011600085052B4383800483CD880587028470BD69
:1011700070B5002400220023058C4FF6FF66354031
:101180000584028C8388848B4FF68F752C404FF634
:10119000FC752C400D882C434FF6FF552A400D89D5
:1011A0004FF6FF7606EA05252A434D8806EA05250F
:1011B0002A431F4DA84202D0234DA8421DD14FF211
:1011C000FF752A404D894FF6FF7606EA05252A432A
:1011D0004FF6FF352A408D8806EA05252A434EF64C
:1011E000FF752B404DF6FF752B408D8906EA0515DE
:1011F0002B43CD8906EA05152B4383808483CD8854
:101200008587028470BD70B5002200230024058C00
:101210004EF6FF7635400584038C8488828B48F631
:10122000FF752A404FF6FF452A400D8820E0000058
:10123000002C01400004004000080040000C004069
:10124000001000400014004000340140004C0140F8
:10125000005001400054014000180040001C0040B4
:10126000002000400040014000440140004801408F
:101270004FF6FF7606EA05252A434DF6FF752B400B
:101280000D8906EA05352B434D8806EA05352B43C3
:10129000FA4DA84202D0FA4DA84208D14BF6FF758C
:1012A0002C408D894FF6FF7606EA85152C43848005
:1012B0008283CD88A0F84050038470BD828B4FF2AA
:1012C000FF331A408283828B4FF6FF7303EA0123B8
:1012D0001A4382837047F0B50C4615460022002160
:1012E0000026078C4EF6FF7C07EA0C070784828BEA
:1012F000018C4FF6FF7707EA043640F6FF473A4085
:101300004FF6FF7707EA05273A434FF6FF7707EADC
:1013100003373A43D94FB8420ED0D94FB8420BD019
:10132000B0F1804F08D0D74FB84205D0D64FB84261
:1013300002D0D64FB84206D14DF6FF77394046F479
:101340008057394305E047F6FF57394044F480574A
:10135000394382830184F0BD828B4FF6F3731A40C8
:101360008283828B0A4382837047F0B50C46154610
:10137000002200210026078C4FF6FF6C07EA0C07BD
:101380000784828B018C4FF6FF7707EA04264FF61D
:101390000C773A404FF6FF7707EA03172F433A439B
:1013A000B64FB8420ED0B64FB8420BD0B0F1804F16
:1013B00008D0B44FB84205D0B34FB84202D0B34FB3
:1013C000B84206D14FF6FF57394046F4807739438B
:1013D00005E04FF2FF57394044F480773943828368
:1013E0000184F0BD028B4FF2FF331A400283028B5F
:1013F0004FF6FF7303EA01231A4302837047F0B5E7
:101400000C461546002200210026078C4FF6EF7C83
:1014100007EA0C070784028B018C4FF6FF7707EA77
:10142000041640F6FF473A404FF6FF7707EA0337C6
:101430003A434FF6FF7707EA05273A438F4FB84202
:101440000ED08F4FB8420BD0B0F1804F08D08D4FE7
:10145000B84205D08C4FB84202D08C4FB84206D16A
:101460004FF6DF77394046F01007394305E04FF675
:101470005F77394044F01007394302830184F0BD9F
:10148000028B4FF6F3731A400283028B0A430283E6
:101490007047F0B50C46154600220021068C4FF629
:1014A000FE773E400684028B018C4FF60C7632406C
:1014B0007E1C06EA03162E433243704EB0420ED015
:1014C0006F4EB0420BD0B0F1804F08D06D4EB0429D
:1014D00005D06D4EB04202D06C4EB04206D14FF6F0
:1014E000FD76314044F00106314305E04FF6F576D4
:1014F000314044F00106314302830184F0BD70B5F0
:1015000005460C465D4885420ED05D4885420BD0AD
:10151000B5F1804F08D05B48854205D05A488542D6
:1015200002D05A48854200D100E000BF208850B95F
:101530002389A28861882846FFF7ABFFE188284607
:10154000FFF79EFF25E0208804280AD12389A2887E
:1015500061882846FFF753FFE1882846FFF742FFDE
:1015600017E0208808280AD12389A28861882846A4
:10157000FFF7FBFEE1882846FFF7EEFE09E023892E
:10158000A28861882846FFF7A6FEE1882846FFF773
:1015900095FE70BD2DE9F04105460C460026012759
:1015A000608808B9022600E00026A088012801D141
:1015B000022700E001272088A0B92389A28861883A
:1015C0002846FFF766FFE1882846FFF759FF238981
:1015D0003A4631462846FFF712FFE1882846FFF7D2
:1015E00001FF13E02389A28861882846FFF707FFDF
:1015F000E1882846FFF7F6FE23893A463146284619
:10160000FFF747FFE1882846FFF73AFFBDE8F08182
:101610000A884B881A438B881A43CB881A430B8954
:101620001A434B891A438B891A43A0F84420704708
:101630004FF6FF71818000210180C18041800172DD
:1016400070470021018041808180C18001814181FA
:101650008181C18170470021018041800121818009
:101660000021C1800181704700210180418081807B
:10167000C18001814181818170470000002C0140BF
:10168000003401400004004000080040000C00400D
:1016900021B1028842F00102028004E002884FF684
:1016A000FE731A400280704731B1B0F8442042F412
:1016B0000042A0F8442005E0B0F84420C2F30E0236
:1016C000A0F8442070471AB183890B43838102E05C
:1016D00083898B43838170478182704741EA02038B
:1016E000A0F8483070471AB183890B43838102E028
:1016F00083898B438381704701894FF6F8721140CB
:10170000018170470A46002101894FF68F73194005
:1017100011430181704730B504460D4629462046E5
:10172000FFF7F0FF208940F00700208130BD2DE950
:10173000F04104460D4616461F46602D06D13B4635
:10174000012231462046FFF75AFE05E03B460122C2
:1017500031462046FFF79DFE29462046FFF7D2FF7F
:10176000208940F007002081BDE8F08130B50C46AB
:1017700000210189C9B24FF6FF7505EA032515431B
:1017800025432943018130BD2DE9F04105460E4630
:1017900017469846002443463A4631462846FFF706
:1017A000E5FF2C894FF6F870044044F007044FF62B
:1017B0008F70044044F070042C81BDE8F081F0B5D6
:1017C00004460D4616461F463B46324629462046ED
:1017D000FFF7CCFF208940F480402081F0BD0185D7
:1017E000828270470A46002101884FF68F731940A4
:1017F000114301807047F0B50C4615461E46002186
:10180000002200230189028B038C4FF6F8773940C0
:1018100021434FF6FC473A4040F201173A434FF656
:10182000DD773B404FF6FF7707EA06172F433B4330
:10183000018102830384F0BD0A460021018B4FF62B
:101840008F7319401143018370470A460021018BB1
:1018500048F6FF7319404FF6FF7303EA022319435A
:10186000018370470A460021818B4FF68F73194020
:101870001143818370470A460021818B48F6FF732C
:1018800019404FF6FF7303EA02231943818370471F
:1018900021B1028842F08002028004E002884FF603
:1018A0007F731A400280704721B1828842F004029F
:1018B000828004E082884FF6FB731A408280704772
:1018C00021B1828842F00802828004E082884FF6CB
:1018D000F7731A408280704721B1828842F001027A
:1018E000828004E082884FF6FE731A40828070473F
:1018F0000A460021018B4FF6F7731940114301830B
:1019000070470A460021018B4FF2FF7319404FF6D2
:10191000FF7303EA02231943018370470A4600213B
:10192000818B4FF6F77319401143818370470A4644
:101930000021818B4FF2FF7319404FF6FF7303EACA
:1019400002231943818370470A460021018B4FF619
:10195000FB7319401143018370470A460021018B34
:101960004FF6FF3319404FF6FF7303EA0223194382
:10197000018370470A460021818B4FF6FB731940A3
:101980001143818370470A460021818B4FF6FF3354
:1019900019404FF6FF7303EA02231943818370470E
:1019A0000A460021018B4FF67F73194011430183D2
:1019B00070470A460021018BC1F30E014FF6FF73F9
:1019C00003EA02231943018370470A460021818BF1
:1019D0004FF67F7319401143818370470A460021F7
:1019E000818BC1F30E014FF6FF7303EA0223194303
:1019F000818370470A460021018C4FF6FD73194020
:101A00001143018470470A460021018C4FF6F77399
:101A100019401143018470470A460021018C4FF69A
:101A2000DF7319404FF6FF7303EA02131943018471
:101A300070470A460021018C4FF67F7319404FF61C
:101A4000FF7303EA02131943018470470A46002119
:101A5000018C4FF6FF5319404FF6FF7303EA022340
:101A60001943018470470A460021018C4FF2FF732D
:101A700019404FF6FF7303EA0223194301847047AC
:101A80000A460021018C4DF6FF7319404FF6FF7393
:101A900003EA023319430184704730B5002301245F
:101AA0008C40A3B2048C9C430484048C02FA01F59C
:101AB000ADB22C43048430BD30B5002304248C40E7
:101AC000A3B2048C9C430484048C02FA01F5ADB2E9
:101AD0002C43048430BD70B5034600200024184612
:101AE000183001258D40ACB21D8CA5431D8409B171
:101AF000082909D100EB6100056825F07005056033
:101B00000568154305600EE00D1FC5F34E0528441A
:101B1000056825F4E045056005684FF6FF7606EA9E
:101B200002263543056070BD21B1028842F00202F1
:101B3000028004E002884FF6FD731A40028070476D
:101B400021B1028842F00402028004E002884FF6CC
:101B5000FB731A400280704721B1828842F08002F4
:101B6000828004E082884FF67F731A40828070473B
:101B700002884FF6F7731A40028002880A430280F7
:101B8000704782884FF68F731A40828082880A439A
:101B90008280704702894FF6F8731A4002810289E9
:101BA0000A430281704702894FF67F731A4002810F
:101BB00002890A430281704781847047818570479A
:101BC000818670470187704781877047A0F8401071
:101BD000704702884FF6FF431A40028002880A438A
:101BE000028070470146888E70470146088F704713
:101BF0000146888F70470146B1F8400070470146A2
:101C0000888C70470146088D704702460020138A71
:101C10000B400BB1012000E000207047CA43028254
:101C2000704730B50246002000230024158A05EADB
:101C30000103958905EA010413B10CB1012000E00C
:101C4000002030BDCA4302827047000010B5044630
:101C5000FB48844209D101218803FEF719FF0021C6
:101C60004FF48040FEF714FF32E0F648844209D179
:101C700001214804FEF719FF00214FF40030FEF760
:101C800014FF25E0F048844209D101218804FEF7C1
:101C90000CFF00214FF48020FEF707FF18E0EB480F
:101CA000844209D10121C804FEF7FFFE00214FF450
:101CB0000020FEF7FAFE0BE0E548844208D101213E
:101CC0000805FEF7F2FE00214FF48010FEF7EDFE4E
:101CD00010BD2DE9F04786B005460E460024A24609
:101CE00000BFA1460027B08900B100BF2F462C8A53
:101CF0004CF6FF700440F08804432C82AC894EF609
:101D0000F3100440B08831890843718908430443C3
:101D1000AC81AC8A4FF6FF400440B0890443AC82EA
:101D200001A8FEF72EFEC648874202D1DDF810A0BA
:101D300001E0DDF80CA0A88900F4004040B10AEBF6
:101D4000CA0000EB0A1031684900B0FBF1F807E067
:101D50000AEBCA0000EB0A1031688900B0FBF1F809
:101D60006420B8FBF0F004012009642101FB108914
:101D7000A88900F4004040B1322000EBC900B0FB5C
:101D8000F1F000F00700044308E0322000EB0910F6
:101D90006421B0FBF1F000F00F0004432C8106B089
:101DA000BDE8F0874FF41651016000218180C180A9
:101DB00001810C21418100218181704710B50246CB
:101DC0000020108A4FF2FF0318400B884C882343F1
:101DD0008C882343CC8823431843108210BD0021F4
:101DE000018041808180C180704721B1828942F4A5
:101DF0000052828104E082894DF6FF731A4082818D
:101E00007047F0B50346002400260025002040F668
:101E10006A17B94200D100BF1846C1F3421401F05D
:101E20001F06012707FA06F5012C01D10C3004E04A
:101E3000022C01D1103000E014301AB107682F4392
:101E4000076002E00768AF430760F0BD1AB1838AFC
:101E50000B43838202E0838A8B4383827047028A2A
:101E60004FF6F0731A400282028A0A4302827047D8
:101E700082894FF2FF731A40828182890A438281EC
:101E8000704721B1828942F00202828104E0828996
:101E90004FF6FD731A4082817047028A4FF6DF7356
:101EA0001A400282028A0A430282704721B1028AE2
:101EB00042F48042028204E0028A4BF6FF731A4029
:101EC00002827047C1F30802828070470146888809
:101ED000C0F308007047818941F00101818170479A
:101EE000028BD2B20283028B42EA01220283704744
:101EF000028B02F47F420283028B0A430283704703
:101F000021B1828A42F02002828204E0828A4FF666
:101F1000DF731A408282704721B1828A42F0100238
:101F2000828204E0828A4FF6EF731A408282704701
:101F300021B1828A42F00802828204E0828A4FF64E
:101F4000F7731A408282704721B1828942F40042BD
:101F5000828103E08289C2F30E028281704721B13F
:101F6000828A42F40062828204E0828A4FF2FF7326
:101F70001A4082827047828A4FF6FB731A4082822F
:101F8000828A0A438282704721B1828A42F0020229
:101F9000828204E0828A4FF6FD731A408282704783
:101FA00002460020B1F5007F00D100BF13880B402E
:101FB0000BB1012000E00020704701F40072B2F57F
:101FC000007F00D100BFCA430280704770B502464F
:101FD000002400230025002040F66A16B14200D1FB
:101FE00000BFC1F3421501F01F03012606FA03F3F7
:101FF000012D02D19689334006E0022D02D1168AC6
:10200000334001E0968A33400C12012606FA04F4AC
:102010001688344013B10CB1012000E0002070BDDF
:1020200010B50022002340F66A14A14200D100BF7F
:102030000A1201249440A3B2DC43048010BD0000C6
:10204000003801400044004000480040004C00407F
:102050000050004000F066FA00F0F6F900F0BCFD18
:1020600000F06AFD00F07CFD01F026FC062001F086
:10207000AFFB0D4802F007FA00214FF6FF7002F0A7
:1020800008FA0A4803880A4802880021084601F035
:102090006AFC02F0FBF9002406A1204601F025FFAE
:1020A00000F09CFE00BFFEE7400000203200002050
:1020B00030000020CAB5CAB1CCECC6F80000000060
:1020C000704700BFFEE700BFFEE700BFFEE700BFAE
:1020D000FEE770477047704710B500F0FDF910BD7E
:1020E00010B540F225511B48FFF770FFD8B11948D1
:1020F000FFF7ECFEC4B21848B0F80004C0F30E00BD
:1021000040F2FF3188420EDA1349B1F80014C1F3EE
:102110000E00411C104AB2F8002461F30E020E4971
:10212000A1F800240C5440F224410A48FFF74EFF66
:1021300001280DD10848B0F8000420F4004000F553
:1021400000400549A1F800040248FFF7BFFEC4B2F1
:1021500010BD0000004400407C00002000B585B0A8
:10216000012144F20400FEF779FC4FF40070ADF851
:10217000100018208DF8130003208DF8120004A918
:102180002148FEF7AFF94FF48060ADF8100004204D
:102190008DF8130004A91C48FEF7A4F94FF4E130B0
:1021A00000900020ADF80400ADF80600ADF808007E
:1021B000ADF80C000C20ADF80A0069461348FFF793
:1021C00088FD01211148FFF710FE05B000BD70B574
:1021D00004460D46E1B20D48FFF774FE00BF8021B2
:1021E0000A48FFF7DDFE0028F9D0204670BD10B583
:1021F000044600BF20210548FFF7D2FE0028F9D091
:102200000248FFF763FE10BD00080140003801409E
:1022100000B585B001210420FEF720FC012148040F
:10222000FEF729FC0420ADF8100018208DF81300EB
:1022300003208DF8120004A97248FEF753F9082014
:10224000ADF8100004208DF8130004A96D48FEF7C6
:1022500049F94FF4E13000900020ADF80400ADF8EA
:102260000600ADF80800ADF80C000C20ADF80A002F
:1022700069466548FFF72DFD012240F2255162486D
:10228000FFF7BFFD012240F224415F48FFF7B9FD8F
:1022900001215D48FFF7A9FD05B000BDF0B503467B
:1022A0000D461646002729460A2E03D00020087046
:1022B0002846F0BD33B9302001F8010B002008702A
:1022C0002846F6E7002B03DA2D2001F8010B5B42CC
:1022D00042F210720DE093FBF2F404B937B104F14D
:1022E000300001F8010B04FB123301270A2092FB96
:1022F000F0F2002AEFDC002008702846D9E70FB47E
:1023000070B586B006460CA8019073E00B98007873
:102310005C281CD10B98401C0B9000786E2809D0CB
:1023200072280FD10D213046FFF7CCFD0B98401CD1
:102330000B900BE00A213046FFF7C4FD0B98401CC0
:102340000B9003E00B98401C0B9000BF4BE00B98E8
:102350000078252840D10B98401C0B900078642809
:1023600018D0732833D1019810C801900BE0217860
:102370003046FFF7A7FD00BF80213046FFF710FE73
:102380000028F9D0641C20780028F0D10B98401C5C
:102390000B9020E0019820C801900A2202A928464B
:1023A000FFF77CFF02AC0BE021783046FFF78AFD97
:1023B00000BF80213046FFF7F3FD0028F9D0641CF0
:1023C00020780028F0D10B98401C0B9003E00B986C
:1023D000401C0B9000BF06E00B9810F8011B0B90FF
:1023E0003046FFF76FFD00BF80213046FFF7D8FD74
:1023F0000028F9D00B980078002887D106B070BC6F
:102400005DF814FB000801400044004008B50121BC
:102410000420FEF723FB0320ADF8000010208DF808
:10242000030003208DF8020069460648FEF75AF8BB
:1024300001210448FEF705F902210248FEF7FFF8E2
:1024400008BD00000008014030B5284800684FF47E
:102450007A72B0FBF2F1B1F1807F01D301201DE06F
:1024600021F07F40401E4FF0E022506150170F22B4
:10247000002807DA13071D0E1D4B00F00F04241F60
:102480001D5503E013071C0E1A4B1C5400BF0020FF
:102490004FF0E022906107201061002008B100BFDA
:1024A000FEE74FF0E020006920F001004FF0E0214E
:1024B000086130BD01B51049009808604FF0E02078
:1024C000006940F001004FF0E021086100BF0A48B8
:1024D00000680028FBD108BD0748006820B1064805
:1024E0000068401E0449086070470000000000209A
:1024F00018ED00E000E400E02800002008B54FF4EB
:10250000A060FDF721FF26208DF8000000208DF847
:1025100001008DF8020001208DF803006846FDF7E8
:1025200018FF08BD10B5FFF771FFFFF717FEFFF7A3
:102530006FFEFFF7E3FF10BD10B50446012C04D178
:102540000121F948FEF77BF803E00121F648FEF788
:1025500078F810BD10B50221F348FEF772F84FF479
:10256000FA70FFF7A7FF0221EF48FEF768F810BDE9
:102570002DE9F04106460C4615461F46EB48B0F8DB
:1025800000046FF30E00E949A1F800043246E8A107
:10259000E948FFF7B4FE1CB915B90120BDE8F08188
:1025A0003846FFF787FF0020E049B1F80014C1F377
:1025B0000E01DE4A50541146E0A004F09DF9B4B17A
:1025C000ADB12146D94803F081FD08B1012000E0FA
:1025D000002040B92946D54803F078FD08B1012014
:1025E00000E0002008B10120D8E70020D6E744B180
:1025F0002146CE4803F06AFD08B10120CEE7002055
:10260000CCE72946C94803F061FD08B10120C5E7C0
:102610000020C3E710B50221C348FEF710F84FF4BD
:102620007A70FFF747FF01E0FFF794FFC82300220D
:10263000C3A1C4A0FFF79CFF0028F5D010BD10B5C2
:10264000044624B1012C0AD0022C18D10FE040F628
:10265000C413BDA2BAA1BFA0FFF78AFF10BD40F608
:10266000C413B9A2B6A1BEA0FFF782FFF6E740F6F9
:10267000C413B5A2B2A1BDA0FFF77AFFEEE7002018
:10268000ECE730B59FB004460D462B462246BAA172
:1026900001A804F041F941F288330022A8A101A861
:1026A000FFF766FF1FB030BD70B5A0B004460D4601
:1026B00016462B462246B5A102A8009604F02CF936
:1026C0004FF47A7300229EA102A8FFF751FF20B0B9
:1026D00070BD10B586B004460CB1012000E00020AA
:1026E0000246B0A101A804F017F94FF4FA730022D2
:1026F00093A101A8FFF73CFF06B010BD70B5BCB0B8
:1027000004460D461646FCB12B460122A9A11EA87F
:1027100004F002F93246ACA1684604F0FDF84FF42B
:10272000FA73002286A11EA8FFF722FF50B14FF4D2
:10273000FA73002282A16846FFF71AFF10B1012048
:102740003CB070BD0020FBE72B46002299A11EA8DB
:1027500004F0E2F84FF4FA73002279A11EA8FFF703
:1027600007FFEDE710B54FF4FA73002274A19AA0A9
:10277000FFF7FEFE48B14FF4FA739BA29BA19CA009
:10278000FFF7F6FE08B1012010BD0020FCE770B590
:10279000044600256548B0F800046FF30E00634955
:1027A000A1F800040846B0F8000420F40040A1F8A5
:1027B000000400BF5D48B0F80004C00B0028F9D049
:1027C00000205A49B1F80014C1F30E01574A505481
:1027D00034B185A1104603F079FC38B1534D05E0C2
:1027E00086A1524803F072FC00B1504D284670BDDE
:1027F00070B5B6B0642283491DA803F043FC64227F
:102800008049643101A803F03DFC00250120FFF759
:1028100093FEFFF7FFFE0120FFF711FF1DAE00BF83
:1028200006E02846691CCDB21AA941F820400026CE
:1028300075A1304603F086FC041EF2D1DDE91B21B0
:102840001A98FFF731FF40F6C41370A23CA171A0A3
:10285000FFF78EFE0120FFF73CFF01AE002506E0EA
:102860002846691CCDB21AA941F82040002666A16D
:10287000304603F067FC041EF2D108206749486126
:102880000120DDE91A12FFF739FF00BF4FF4FA7398
:1028900063A22BA164A0FFF76BFE4FF4FA60FFF771
:1028A00009FE4FF4FA73002262A166A0FFF760FEF2
:1028B0000028EBD036B070BDF0B5B9B006460F4673
:1028C00014461D46642120A803F0F5FB16B1012E25
:1028D00010D107E03B465FA25FA120A8009404F05E
:1028E0001BF808E03B4660A25BA120A8009404F01E
:1028F00013F800E000BF00BF052D06DA20AB2A4622
:102900005AA102A804F008F804E020AA5CA102A8D9
:1029100004F002F84FF4FA735DA209A102A8FFF7D0
:1029200027FE39B0F0BD0000000801407C00002007
:1029300025730D0A000000000044004025730000CC
:102940004F4B0000415400006E6F206368616E675A
:102950006500000041542B43574D4F44453D310025
:1029600041542B43574D4F44453D320041542B4376
:10297000574D4F44453D330041542B43574A415036
:102980003D222573222C22257322000041542B4323
:10299000575341503D222573222C222573222C317E
:1029A0002C25730041542B4349504D55583D256407
:1029B0000000000041542B434950534552564552A4
:1029C0003D25642C2573000041542B43495053543A
:1029D0004F3D25730000000041542B4349504D4F9B
:1029E00044453D31000000003E0000000D0A00009B
:1029F00041542B43495053454E4400002B49504409
:102A000000000000F87E00082C0000007265616480
:102A10007900000041542B52535400000010014033
:102A20004C696E6B0000000041542B4349465352E1
:102A3000000000002B4349505354415455533A3041
:102A40000000000041542B43495053544154555306
:102A50000000000054435000222573222C222573CD
:102A6000222C2573000000005544500041542B4394
:102A7000495053544152543D25642C2573000000A5
:102A800041542B43495053544152543D2573000047
:102A9000414C5245415920434F4E4E45435400004E
:102AA0002DE9F04186B007460C4615461E464FF00C
:102AB000000837B12246AFF27C111248FFF71FFC25
:102AC0001CE0052E06DAAB1C32460FA101A803F06C
:102AD00023FF04E0AA1C11A101A803F01DFF4FF47D
:102AE0007A73002211A101A8FFF742FD4FF47A7317
:102AF00000220FA12046FFF73BFD8046404606B06E
:102B0000BDE8F0810044004041542B4349505345F7
:102B10004E443D25642C25640000000041542B43A5
:102B2000495053454E443D25640000003E200000BE
:102B300053454E44204F4B0008B501210420FDF7BA
:102B40008DFF4FF48070ADF8000018208DF8030061
:102B500003208DF8020069461D48FDF7C3FC08BD3F
:102B600000B587B00121C802FDF778FFC720ADF896
:102B7000140041F61F40ADF810000020ADF816001B
:102B8000ADF812008DF8180004A91248FEF724FAD7
:102B90007020ADF800000120ADF802000020ADF873
:102BA00008004FF48070ADF80C0069460948FEF744
:102BB00050FA08210748FEF79BFE01210548FEF761
:102BC00067FD01210348FEF76FFD07B000BD00005F
:102BD00000080140002C014008B501211020FDF73C
:102BE0003DFF0420ADF8000010208DF80300012007
:102BF0008DF8020069460548FDF774FC0820ADF821
:102C0000000069460148FDF76DFC08BD0010014059
:102C10002DE9F04F9DB00646322004F025FC054614
:102C2000322004F021FC80463221284603F043FA8A
:102C30003221404603F03FFA304602F041FB814624
:102C400082A1484602F042FF82460021504602F02F
:102C500034FF1B907FA11B9802F038FF834680A1B0
:102C60001B9802F033FF1C907EA1584602F02EFF05
:102C700004462569284603F045FA07461AAB424642
:102C80003946284601F05CFC424678A101A803F0D1
:102C900043FE01F0FBFBC78801A9384601F025F986
:102CA0003221404603F007FA322101A803F003FA6B
:102CB00072A1584602F00AFF04462569284603F02F
:102CC00021FA07461AAB42463946284601F038FC3D
:102CD00042466CA101A803F01FFE01F0D7FBC0889B
:102CE0004004070C01A9384601F0FFF832214046A4
:102CF00003F0E1F9322101A803F0DDF965A11C9888
:102D000002F0E4FE04462569284603F0FBF9074675
:102D10001AAB42463946284601F012FC42465FA1F2
:102D200001A803F0F9FD01F0B1FBC08800EB400001
:102D300087B201A9384601F0D8F83221404603F0A5
:102D4000BAF9322101A803F0B6F958A11C9802F093
:102D5000BDFE044625692A4656A101A803F0DCFD04
:102D600001F094FBC08800EB800087B201A93846CF
:102D700001F0BBF8322101A803F09DF951A11C9884
:102D800002F0A4FE044625692A4651A101A803F0D9
:102D9000C3FD01F07BFBC0888004070C01A9384605
:102DA00001F0A3F8322101A803F085F9484601F0AB
:102DB00085FC504601F082FC1C9801F07FFC204607
:102DC00001F07CFC1B9801F079FC284604F024FB00
:102DD000404604F021FB1DB0BDE8F08F10B54FF464
:102DE0009670FFF767FB0120FFF7A6FBFFF712FCC9
:102DF0000020FFF724FC3AA13CA0FFF742FC05238A
:102E00003EA23FA10020FFF757FDFFF7ABFC0523D3
:102E100000223F490120FFF743FE3E48B0F800047E
:102E20006FF30E003B49A1F800044FF47A70FFF7EE
:102E300041FB00203749B1F80014C1F30E01354AB7
:102E4000505435491046FFF7E3FE10BD72657375A7
:102E50006C7473006C6F636174696F6E00000000C6
:102E60006E6F77006E616D6500000000B3C72020B3
:102E70002020CAD03A2025730000000070617468D9
:102E800000000000B5D820202020C7F83A20257384
:102E9000000000007465787400000000CCEC202075
:102EA0002020C6F83A20257300000000636F646597
:102EB00000000000CCECC6F8B4FAC2EBA3BA25734C
:102EC0000000000074656D70657261747572650054
:102ED000CEC220202020B6C8A3BA2573000000006F
:102EE00031333739353937393832360054502D4C73
:102EF000494E4B5F4639353600000000383000003F
:102F00003131362E36322E38312E31333800000032
:102F1000085F01087C0000207E04002000B587B017
:102F200001210803FDF79AFD0121D420FDF796FD4C
:102F30001020ADF8040003208DF8060010208DF855
:102F4000070001A9FE48FDF7CDFA2020ADF80400E6
:102F500018208DF8070001A9F948FDF7C3FA4020B1
:102F6000ADF8040001A9F648FDF7BCFA8020ADF8E1
:102F7000040001A9F248FDF7B5FA1021F048FDF769
:102F80005EFB0020ADF808004FF48270ADF80A0037
:102F90000020ADF80C000220ADF80E000120ADF8C5
:102FA00010004002ADF812000820ADF81400002017
:102FB000ADF816000720ADF8180002A9E148FDF7AA
:102FC000D7FD0121DF48FDF778FE07B000BD10B541
:102FD00004462146DCA003F08FFC002010BD10B594
:102FE00004464FF48050E44908600AE0E24908686A
:102FF000411EE14A116020B90020FFF7E8FFC0B28E
:1030000010BD0221CF48FDF7DCFE0028EED021469E
:10301000CC48FDF783FE4FF48050D74908600AE0A2
:10302000D5490868411ED44A116020B90120FFF734
:10303000CEFFC0B2E4E70121C248FDF7C2FE00287E
:10304000EED0C048FDF76CFEC0B2D9E710B5002441
:103050001021BB48FDF7F5FA0520FFF7C0FF00BFC0
:10306000FF20FFF7BCFF044604F001000028F7D161
:103070001021B348FDF7E3FA10BD10B51021B04898
:10308000FDF7DFFA0620FFF7AAFF1021AC48FDF795
:10309000D6FA10BD10B50446FFF7EFFFFFF7D6FFD5
:1030A0001021A748FDF7CDFA2020FFF798FFC4F3C1
:1030B0000740FFF794FFC4F30720FFF790FFE0B24B
:1030C000FFF78DFF10219E48FDF7B9FAFFF7BEFF0D
:1030D00010BD10B5FFF7D1FF10219948FDF7B1FAE7
:1030E000C720FFF77CFF10219548FDF7A8FAFFF7EE
:1030F000ADFF10BD70B505460C461646FFF7BDFF87
:1031000010218F48FDF79DFA0220FFF768FFC4F3F6
:103110000740FFF764FFC4F30720FFF760FFE0B24A
:10312000FFF75DFFB6F5807F04DD4FF4807693A056
:1031300003F0E2FB03E02878FFF751FF6D1C301E1F
:10314000A6F101018EB2F6D110217D48FDF777FA84
:10315000FFF77CFF70BD2DE9F05F07460E46144671
:103160004FF00008C146C2460025AB4606F0FF0AF4
:10317000CAF10000C5B22046E11704EB1161C1F3AA
:103180000728E11704EB11610912A4EB012101F0FA
:10319000FF09BAF1000F20D1B8F1000F05D1224686
:1031A00031463846FFF7A6FF64E009E04FF480722D
:1031B00031463846FFF79EFF06F5807607F58077A3
:1031C000B8F10000A8F1010101F0FF08EED14A4674
:1031D00031463846FFF78EFF4CE0B8F1000F18D1AA
:1031E000A94510DDA9EB050000F0FF0B2A4631468A
:1031F0003846FFF77FFF2E442F445A463146384663
:10320000FFF778FF36E0224631463846FFF772FF77
:1032100030E0601B84B22046E11704EB1161C1F37A
:103220000728E11704EB11610912A4EB012101F059
:10323000FF092A4631463846FFF75CFF2E442F44EB
:1032400009E04FF4807231463846FFF753FF06F528
:10325000807607F58077B8F10000A8F1010101F050
:10326000FF08EED1B9F1000F04D04A463146384686
:10327000FFF740FFBDE8F09F70B505460C461646C7
:1032800010212F48FDF7DDF90320FFF7A8FEC4F356
:103290000740FFF7A4FEC4F30720FFF7A0FEE0B24B
:1032A000FFF79DFE04E0FF20FFF799FE28706D1CDC
:1032B000301EA6F101018EB2F5D110212048FDF794
:1032C000BEF970BD2DE9F04100240025002600273D
:1032D00010211B48FDF7B5F99F20FFF780FEFF2066
:1032E000FFF77DFE0546FF20FFF779FE0646FF202B
:1032F000FFF775FE074610211148FDF7A0F92804D5
:1033000040EA062040EA07042046BDE8F08110B5F7
:10331000002410210A48FDF794F9AB20FFF75FFE67
:10332000FF20FFF75CFEFF20FFF759FEFF20FFF7AD
:1033300056FEFF20FFF753FE04461021004837E0F9
:1033400000080140003001403C3C2D464C415348B0
:103350002D4552524F522D3E3E2053504920B5C864
:10336000B4FDB3ACCAB1216572726F72436F64650C
:10337000203D2025640A00002C0000203C3C2D4606
:103380004C4153482D4552524F522D3E3E205350F2
:10339000495F464C4153485F506167655772697495
:1033A0006520746F6F206C61726765210A000000F0
:1033B000FDF745F9204610BD10B5044610213248EE
:1033C000FDF73FF90320FFF70AFEC4F30740FFF7BC
:1033D00006FEC4F30720FFF702FEE0B2FFF7FFFD91
:1033E00010BD10B5FF20FFF7FAFD10BD10B5044663
:1033F0004FF480502549086009E024490868411EBF
:10340000224A116018B90220FFF7E1FD10BD022128
:103410001F48FDF7D6FC0028EFD021461C48FDF7D9
:103420007DFC4FF480501949086009E0174908688D
:10343000411E164A116018B90320FFF7C8FDE5E7E1
:1034400001211348FDF7BDFC0028EFD01048FDF71F
:1034500067FCDBE710B510210B48FDF7F2F8B92047
:10346000FFF7BDFD10210848FDF7E9F810BD10B5C4
:1034700010210548FDF7E5F8AB20FFF7B0FD10215E
:103480000148FDF7DCF810BD000801402C000020C9
:103490000030014001B502E00098401E0090009805
:1034A0000028F9D108BD08B501210846FDF7D6FA74
:1034B00001213820FDF7D2FA0121F748FDF7E3F8A2
:1034C00003208DF8020010208DF803004FF6FF70E6
:1034D000ADF800006946F148FDF704F82020ADF88A
:1034E00000006946EE48FCF7FDFF4020ADF8000003
:1034F0006946EB48FCF7F6FF1020ADF8000069467E
:10350000E748FCF7EFFF8020ADF800006946E4488B
:10351000FCF7E8FF0420ADF800006946E148FCF73D
:10352000E1FF08BD10B54FF6FF70FFF7B3FFCF20E6
:1035300003F0BAF9002003F0CBF9812003F0C8F9B9
:10354000302003F0C5F94FF6FF70FFF7A3FFED2021
:1035500003F0AAF9642003F0BBF9032003F0B8F9E3
:10356000122003F0B5F9812003F0B2F94FF6FF7095
:10357000FFF790FFE82003F097F9852003F0A8F902
:10358000102003F0A5F9782003F0A2F94FF6FF70A0
:10359000FFF780FFCB2003F087F9392003F098F97B
:1035A0002C2003F095F9002003F092F9342003F069
:1035B0008FF9022003F08CF94FF6FF70FFF76AFFD6
:1035C000F72003F071F9202003F082F94FF6FF7025
:1035D000FFF760FFEA2003F067F9002003F078F9B5
:1035E000002003F075F94FF6FF70FFF753FFB1208D
:1035F00003F05AF9002003F06BF91B2003F068F97F
:103600004FF6FF70FFF746FFB62003F04DF90A2092
:1036100003F05EF9A22003F05BF94FF6FF70FFF7AD
:1036200039FFC02003F040F9352003F051F94FF67F
:10363000FF70FFF72FFFC12003F036F9112003F0D0
:1036400047F9C52003F030F9452003F041F9452042
:1036500003F03EF9C72003F027F9A22003F038F960
:10366000F22003F021F9002003F032F9262003F0C4
:103670001BF9012003F02CF94FF6FF70FFF70AFF4A
:10368000E02003F011F90F2003F022F9262003F0C7
:103690001FF9242003F01CF90B2003F019F90E2068
:1036A00003F016F9092003F013F9542003F010F980
:1036B000A82003F00DF9462003F00AF90C2003F0CE
:1036C00007F9172003F004F9092003F001F90F208E
:1036D00003F0FEF8072003F0FBF8002003F0F8F8F1
:1036E000E12003F0E1F8002003F0F2F8192003F0E4
:1036F000EFF81B2003F0ECF8042003F0E9F81020A9
:1037000003F0E6F8072003F0E3F82A2003F0E0F8DE
:10371000472003F0DDF8392003F0DAF8032003F046
:10372000D7F8062003F0D4F8062003F0D1F83020B3
:1037300003F0CEF8382003F0CBF80F2003F0C8F8E0
:103740004FF6FF70FFF7A6FE362003F0ADF8C82055
:1037500003F0BEF84FF6FF70FFF79CFE2A2003F03F
:10376000A3F8002003F0B4F8002003F0B1F8002023
:1037700003F0AEF8EF2003F0ABF84FF6FF70FFF761
:1037800089FE2B2003F090F8002003F0A1F8002020
:1037900003F09EF8012003F09BF83F2003F098F817
:1037A0004FF6FF70FFF776FE3A2003F07DF85520C4
:1037B00003F08EF8112003F077F83B48FFF76AFE1C
:1037C0004FF6FF70FFF766FE292003F06DF810BD7D
:1037D00010B50446072C00DD10BD344804702046A7
:1037E00004EBD0714910A4EB410139B9F020304904
:1037F00008804FF4A0702F49088006E04FF4A070B5
:103800002B490880F0202B490880362003F04CF823
:10381000082141EA441003F05BF82A2003F044F841
:10382000002003F055F8002003F052F820490988E1
:10383000491EC1F3072003F04BF81D490978491EC2
:10384000C8B203F045F82B2003F02EF8002003F057
:103850003FF8002003F03CF816490988491EC1F3DF
:10386000072003F035F813490978491EC8B203F060
:103870002FF82C2003F018F800BFADE710B5044670
:1038800024B104210748FCF7DCFE03E004210548CD
:10389000FCF7D5FE10BD000000023000000C014016
:1038A0000010014000140140FCBF02003400002061
:1038B000300000203200002010B5FFF7F4FD012099
:1038C000FFF7DCFFFFF72EFEFB480078FFF780FFD5
:1038D00010BD2DE9F04104460D4616461F462A202C
:1038E00002F0E2FF201202F0F3FFE0B202F0F0FF7C
:1038F000A119491EC1F30F2002F0EAFFA119491EC8
:10390000C8B202F0E5FF2B2002F0CEFF281202F031
:10391000DFFFE8B202F0DCFFE919491EC1F30F2016
:1039200002F0D6FFE919491EC8B202F0D1FFBDE886
:10393000F08170B504460D4601231A4629462046FB
:10394000FFF7C7FF70BD70B504460D4600262C205A
:1039500002F0AAFF00BF03E0284602F0B9FF761C80
:10396000A642F9D370BD2DE9F04106460F46144634
:103970001D462B46224639463046FFF7AAFF04FB78
:1039800005F0CE490988FFF7DEFFBDE8F08170B58C
:1039900005460C46CA48008885420CDAC9480088AA
:1039A000844208DA21462846FFF7C3FFC64801884B
:1039B0000120FFF7C8FF70BD70B500240025002668
:1039C0002E2002F071FF02F043FF044602F040FF98
:1039D000044602F03DFF064602F03AFF0546E012BB
:1039E000C002A91240EA411040EAE62070BD70B55D
:1039F00004460D4629462046FFF79BFFFFF7DCFFF4
:103A00000646304670BD2DE9FF4F83B081464FF02A
:103A1000000AD3460598A0EB090504990698461AB2
:103A2000CDF8049004980090002D01DD012705E0F9
:103A30000DB9002702E04FF0FF376D42002E02DD86
:103A40004FF0010806E016B94FF0000802E04FF011
:103A5000FF387642B54201DD2C4600E034460020B6
:103A6000029019E0DDE90010FFF791FFAA44B3448A
:103A7000A24505DDAAEB040A0198384480B2019002
:103A8000A34505DDABEB040B0098404480B20090E9
:103A90000298401C80B20290611C02988842E1DDCD
:103AA00007B0BDE8F08F2DE9F04104460D461646FB
:103AB0001F46DDF81880B8F1000F0CD03B463246A7
:103AC00029462046FFF705FF06FB07F07E490988D7
:103AD000FFF739FF27E0A019401E82B22B46294686
:103AE0002046FFF790FFE819401E83B2A019401E40
:103AF00082B2E819401E81B22046FFF784FFE81920
:103B0000401E83B2224629462046FFF77CFFE91972
:103B1000491E8BB2A119491E8AB2A119491E88B249
:103B20002946FFF770FFBDE8F0812DE9F05F0546FB
:103B30000E4691469B4600240FFA89F70320A0EB1E
:103B400049000FFA80FA87E0BBF1000F40D0A04691
:103B50003BE006EB080291B22A1990B2FFF717FF7B
:103B600006EB080291B22A1B90B2FFF710FF321940
:103B700091B2A5EB080290B2FFF709FF321B91B298
:103B8000A5EB080290B2FFF702FFA6EB080291B284
:103B90002A1B90B2FFF7FBFEA6EB080291B22A198E
:103BA00090B2FFF7F4FE321B91B205EB080290B21F
:103BB000FFF7EDFE321991B205EB080290B2FFF764
:103BC000E6FE08F101000FFA80F8B845C1DD2FE0EC
:103BD000F21991B22A1990B2FFF7D9FEF21991B2F7
:103BE0002A1B90B2FFF7D3FE321991B2EA1B90B2B2
:103BF000FFF7CDFE321B91B2EA1B90B2FFF7C7FE72
:103C0000F21B91B22A1B90B2FFF7C1FEF21B91B2D8
:103C10002A1990B2FFF7BBFE321B91B2EA1990B29B
:103C2000FFF7B5FE321991B2EA1990B2FFF7AFFE75
:103C3000601C04B2BAF1000F05DAA000801D5044E8
:103C40000FFA80FA07E0E01B80000A3050440FFAB8
:103C500080FA781E07B200BFBC427FF775AFBDE89F
:103C6000F09F2DE9F05F804689461646A6F12000B8
:103C70001FFA80FA154909688988144A1268D2889F
:103C800001FB02F0C11700EB5171C1F3C7070F48E8
:103C9000006800680AFB070B0C480068C3880B48E3
:103CA0000068828849464046FFF713FE2C2002F048
:103CB000FBFD002423E00000340000203E00002033
:103CC00030000020320000203C000020380000209E
:103CD000002510E01BF8040080212941084020B194
:103CE000FE48008802F0F4FD03E0FD48008802F081
:103CF000EFFD681CC5B2082DECDB601CC4B2BC42F1
:103D0000E6DBBDE8F09F70B504460D46002624E0D2
:103D10003046F449096889880844F349098888428B
:103D200005DD0026EF480068C088204484B22046A4
:103D3000EC490968C9880844EC490988884201DDD2
:103D4000002600242A7821463046FFF78AFF6D1CA2
:103D5000E44800688088304486B228780028D7D1AB
:103D600070BD70B505460E46144624E02846DD4970
:103D7000096889880844DC490988884205DD0025EE
:103D8000D8480068C088304486B23046D5490968B2
:103D9000C9880844D5490988884201DD00250026E4
:103DA000227831462846FFF75CFF641CCD48006846
:103DB0008088284485B220780028D7D170BD70B59E
:103DC00005460E46144624E03046C6490968C988AF
:103DD0000844C6490988884205DD0026C1480068B4
:103DE0008088284485B22846BE49096889880844E5
:103DF000BD490988884201DD002500262278314628
:103E00002846FFF72EFF641CB6480068C08830447F
:103E100086B220780028D7D170BD2DE9F04389B053
:103E200080468946174610231A4649464046FFF702
:103E300050FD2C2002F038FD394601A800F058FB57
:103E4000002422E001A810F814604FF6FF7000EA89
:103E50000626012000EB440001A9085C064300256A
:103E60000FE04FF400402841304020B19B480088CB
:103E700002F02EFD03E09A48008802F029FD681C3C
:103E8000C5B2102DEDDB601CC4B2102CDADB09B01A
:103E9000BDE8F0832DE9F04105460F4614461FE0CA
:103EA0002846103090490988884203DD002507F133
:103EB000100087B2384610308C490988884201DDED
:103EC000002500272688300200EB262086B23246E5
:103ED00039462846FFF7A1FF05F1100085B2A41C62
:103EE00020780028DCD1BDE8F0812DE9F0410546BD
:103EF0000C46002648E020787E2825DC30467949AB
:103F000009688988084478490988884205DD0026BF
:103F100074480068C088284485B2284671490968F9
:103F2000C988084471490988884201DD00260025B6
:103F3000227829463046FFF794FE6A480068808858
:103F4000304486B2641C1FE0304610306649098850
:103F5000884203DD002605F1100085B228461030A6
:103F600062490988884201DD002600252788380239
:103F700000EB272087B23A4629463046FFF74DFF2F
:103F800006F1100086B2A41C20780028B3D1BDE849
:103F9000F0812DE9F04105460E46144648E02078B0
:103FA0007E2825DC28464F490968898808444E49FF
:103FB0000988884205DD00254A480068C0883044E9
:103FC00086B2304647490968C98808444749098884
:103FD000884201DD00250026227831462846FFF779
:103FE00040FE404800688088284485B2641C1FE079
:103FF000284610303C490988884203DD002506F137
:10400000100086B23046103038490988884201DDF8
:10401000002500262788380200EB272087B23A4681
:1040200031462846FFF7F9FE05F1100085B2A41CC1
:1040300020780028B3D1BDE8F0812DE9F041064693
:104040000D4614462CE0284610302849098888423D
:1040500003DD002506F1100086B2304610302249FB
:104060000988884201DD0026002520787E2809DCA9
:10407000227829463046FFF7F4FD641C05F1100054
:1040800085B20DE02788380200EB272087B23A4638
:1040900029463046FFF7C1FE05F1100085B2A41C89
:1040A00020780028CFD1BDE8F0812DE9FC4F0C46E7
:1040B0001E464FEA004A9AFBF2FA0AF1010ACDF8CD
:1040C00004A04FEA044A9AFBF6FA0AF1010ACDF875
:1040D00000A04FF0000920280CDB09E03C00002084
:1040E0003E00002038000020300000203200002078
:1040F000BDE8FC8F00FB04FABAF1000F00D1ECE739
:1041000000FB04FABAF5806F00DBE6E702FB06FA73
:10411000BAF1000F00D1E0E702FB06FABAF5804FD2
:1041200000DBDAE7EA4BDDF834A0BAF1000F2BD15F
:1041300000211FE0002517E0DDF82CA01AF801A0EF
:104140004FF0800B4BFA05FB0AEA0B0ABAF1000F9D
:1041500002D04FF0010A01E04FF0000A03F801AB72
:1041600005F1010A1FFA8AF5082DE5DB01F1010AC4
:104170001FFA8AF104FB00FA4FEAEA7B0AEB5B7B49
:10418000B1EBEB0FD6DB2AE000211FE0002517E0A2
:10419000DDF82CA01AF801A04FF0800B4BFA05FBBC
:1041A0000AEA0B0ABAF1000F02D04FF0010A01E04F
:1041B0004FF0000A03F801AB05F1010A1FFA8AF576
:1041C000082DE5DB01F1010A1FFA8AF104FB00FA70
:1041D0004FEAEA7B0AEB5B7BB1EBEB0FD6DBBC4B28
:1041E000BC4F4FF0000C1AE04FF0000A4FEA194B99
:1041F00000FB0B3ED0460AE00EEB1A4B9BF800B0DA
:1042000007F808B0DDF804B0DA4408F10108904579
:10421000F2D3DDF800B0D94417440CF1010CB445D9
:10422000E2D3DFF8B0A2CDF830A0DDF830A00AF17B
:10423000010ACDF830A000BF4FE72DE9F05F8146BD
:104240008A4614461D46DDE90A6B0027B8462B4610
:10425000224651464846FFF73CFB2C2002F024FB47
:1042600000BF14E04FF000080EE016F8011B59459E
:1042700004D19948008802F02BFB03E0974800889E
:1042800002F026FB08F10108A045EED37F1CAF42E7
:10429000E8D3BDE8F09F2DE9F04F8FB00646884681
:1042A00014469946DDE9185B274669E030463844F4
:1042B0008B490988884204DD002608EB09001FFAB3
:1042C00080F84046484487490988884201DD002635
:1042D000B0462878802825DD2746B5F800A04FEAAB
:1042E0000A2000EB2A201FFA80FA514605A800F0A8
:1042F000FFF8012105AA0E984B46CDE90020029156
:104300003A4610210846FFF7D0FE72484B463A461F
:104310004146CDE9000B3046FFF78FFFF01986B21A
:10432000AD1C2DE0204604EBD071C1F34F07287877
:104330002038C0B20D9000236B48C288DDE90D0122
:104340005043694A92885043C217049000EB527060
:10435000654A126802EBE0008DE80B004B463A46D6
:1043600018211020FFF7A1FE5A484B463A46414615
:10437000CDE9000B3046FFF760FFF01986B26D1CE7
:104380002878002892D10FB0BDE8F08F2DE9F04FCA
:104390008FB080460E4614461F46DDE9185A0E942B
:1043A0006BE0304620444E490988884204DD0026EF
:1043B00008EB04001FFA80F8404638444949098850
:1043C000884201DD0026B0462878802825DD0E943D
:1043D000B5F800904FEA092000EB29201FFA80F978
:1043E000494604A800F084F8012104AA0D983B4630
:1043F000CDE900200291102108460E9AFFF755FEE4
:1044000034483B46CDE9000A314640460E9AFFF754
:1044100014FFF01986B2AD1C2FE0204604EBD071DA
:10442000C1F34F010E9128782038C0B20C900023C0
:104430002D48C288DDE90C0150432B4A928800FBCD
:1044400002FB4FEAEB700BEB5070274A126802EB4D
:10445000E0008DE80B003B46182110200E9AFFF774
:1044600024FE1C483B46CDE9000A314640460E9AE0
:10447000FFF7E3FEF01986B26D1C2878002890D172
:104480000FB0BDE8F08F1949086070471748006801
:104490007047124A1080104A118070470F4A1288E4
:1044A00002800D4A12880A8070470C4908807047C4
:1044B00009490880704770B50446FFF7E7FFC588D3
:1044C0002B460748028821460020FFF74CFA70BDB2
:1044D000FE440020FE0400203E0000203C0000209E
:1044E000300000203200002048000020380000206A
:1044F0002DE9F04180460C461048007820B9FEF7BF
:104500000DFD01200D4908702512E6B2A5F1A101AB
:10451000C1EB011202EB411106EB4101A139080286
:10452000C11700EB5171CF1007F5CB112022404687
:10453000FEF7A2FE0020BDE8F08100005800002038
:104540002DE9F04704460E46154698460021002303
:104550004BE0605C00F0800020B94FF0010C605C23
:10456000E85440E0605C00F0F000E02838D1881C9E
:10457000B04203DB4FF0FF30BDE8F087605C00071E
:104580004FEA1049481C205C00F03F0049EA8010C7
:1045900001F1020914F8099009F03F0940EA0907FE
:1045A000A7F59C40DFF84C9039F8102010464FEAF0
:1045B000E27902EB1969C9F3072905F803904FEA7C
:1045C000E27902EB19694FEA2929A2EB092909F0DE
:1045D000FF0A03F1010905F809A05B1C891C02E030
:1045E0004FF0FF30C8E7491C5B1CB142B1DB002033
:1045F000C2E7000020BB0008FE480068704770B5A5
:1046000004460D462CB9AC4201D0012070BD0020FB
:10461000FCE70DB90120F9E705E0207808B9002092
:10462000F4E7641C6D1C207801F026FD064628780E
:1046300001F022FD8642F0D0207801F01DFD0646F3
:10464000287801F019FD301AE0E770B504462046DD
:1046500001F058FD451C2846E74909688847061EB1
:1046600000D170BD2A462146304601F00BFD304690
:10467000F7E730B9E149E04A1160E149E14A1160E8
:104680007047016809B1016800E0DC49DA4A11604D
:10469000416809B1416800E0D949DA4A116000BFB8
:1046A000EEE710B52820D4490968884704461CB1B4
:1046B0002821204601F0FFFC204610BD70B50446BD
:1046C00022E02568A08900F4807020B9A06810B1AC
:1046D000A068FFF7F3FFA08900F4807028B9206973
:1046E00018B1C849206909688847A08900F400709A
:1046F00028B9206A18B1C349206A0968884720464A
:10470000C049096888472C46002CDAD170BD2DE9D4
:10471000F04F8BB083468A460020044605460026AB
:10472000B94F0021884689460990012008909AF8DF
:1047300000002D2802D1B54F0AF1010A9AF80000B5
:10474000302801D10AF1010A9AF80000312822DB51
:104750009AF8000039281EDC00BF1AF8011BA1F1ED
:10476000300001F02AFE0022A94BCDE906012046C7
:10477000294601F0B0FDCDE90401DDE9062301F091
:1047800003FD04460D469AF80000302803DB9AF832
:1047900000003928E1DD9AF800002E2830D19AF87F
:1047A000010030282CDB9AF80100392828DC0AF1B6
:1047B000010A00BF1AF8011BA1F1300001F0FDFD54
:1047C0000022934BCDE906012046294601F083FDE6
:1047D000CDE90401DDE9062301F0D6FC04460D46CF
:1047E0000022894B4046494601F06FFD80468946CC
:1047F0009AF80000302803DB9AF800003928D9DD48
:104800009AF80000652803D09AF80000452823D1C3
:104810000AF1010A9AF800002B2802D10AF1010AD4
:1048200008E09AF800002D2804D14FF0FF300890DE
:104830000AF1010A08E01AF8010B3038099901EB76
:10484000810100EB410009909AF80000302803DB59
:104850009AF800003928EEDDDDE9082101FB02F0BD
:1048600001F0ABFD42464B46CDE9000101F08CFC66
:1048700002460B46CDE902010020654902F02AFEFE
:1048800022462B46CDE906013046394601F023FD8C
:10489000CDE90401DDE9062301F01DFD04460D46C6
:1048A000CBE906452046294601F098FDCBF81400D7
:1048B0000320CBF80C0050460BB0BDE8F08F01464A
:1048C000491E41EA610141EAA10141EA211141EA9F
:1048D000212141EA2141481C70472DE9F04104465D
:1048E0000E460CB1206810B90020BDE8F081A06828
:1048F00006446068B04203DBA16820680844F4E71E
:104900003046FFF7DCFF074638463B4909688847D1
:1049100005463DB93B49206809688847002060602A
:104920002060E2E725B12846D4E9001201F0AAFB95
:10493000344920680968884767602560A068284472
:10494000D3E770B504460CB1206808B9002070BDEB
:10495000A16820684518284601F0D4FBA1680844E6
:10496000F5E72DE9FC4782460E464FF00009DAE9EB
:104970000645002213462046294601F061FD13D169
:104980002EB102213046FFF7A8FF814604E0022045
:104990001949096888478146B9F1000F03D01DA065
:1049A0000088A9F800009FE0DAF8140001F005FD86
:1049B000074622462B4601F088FC21F000410022E8
:1049C000154BCDE9000101F03BFD3ED8134A144BD5
:1049D0002046294601F034FD37D80022114B2046ED
:1049E000294601F045FD30D806B315213046FFF7C2
:1049F00074FF19E05C00002060000020697400086A
:104A000019740008640000200000F03F0000F0BFAF
:104A100000002440300000000000B03C0000C0FF57
:104A2000FFFFDF410000E0C1814604E01520FA49A4
:104A3000096888478146B9F1000F55D0F7A148466B
:104A4000DAF8142001F068FF4EE02EB14021304624
:104A5000FFF743FF814604E04020EF49096888479B
:104A60008146B9F1000F3FD02046294602F066FC8E
:104A7000074622462B4601F028FC21F00041002287
:104A8000E74BCDE9000101F0DBFC0FD825F0004138
:104A90002746E44AE44B384601F0D2FC06D22246CF
:104AA0002B46E2A1484601F037FF1DE025F000410A
:104AB0002746E04AE04B384601F0C2FC07D325F018
:104AC00000410022DD4B384601F0D2FC06D22246DE
:104AD0002B46DBA1484601F01FFF05E022462B468E
:104AE000D8A1484601F018FF4846BDE8FC870146BA
:104AF00000220878302806DB0878392803DC08789B
:104B00003038024415E00878412806DB087846284A
:104B100003DC0878373802440BE00878612806DBAC
:104B20000878662803DC08785738024401E0002042
:104B300070471201491C0878302806DB08783928AC
:104B400003DC08783038024415E00878412806DB99
:104B50000878462803DC0878373802440BE00878E8
:104B6000612806DB0878662803DC08785738024499
:104B700001E00020DCE71201491C0878302806DB40
:104B80000878392803DC08783038024415E00878C2
:104B9000412806DB0878462803DC087837380244C9
:104BA0000BE00878612806DB0878662803DC0878C3
:104BB0005738024401E00020BAE71201491C087886
:104BC000302806DB0878392803DC087830380244BE
:104BD00015E00878412806DB0878462803DC0878C9
:104BE000373802440BE00878612806DB087866282D
:104BF00003DC08785738024401E0002098E71046AB
:104C000096E72DE9F05F8346884608F10104002706
:104C100098F80000222805D08B48C0F800800020BA
:104C2000BDE8F09F04E014F8011B5C2900D1641C6E
:104C30002078222804D0207810B1781C071EF2D1E9
:104C4000781C7549096888478146B9F1000F01D180
:104C50000020E5E708F101044D469EE020785C283D
:104C600004D014F8010B05F8010B96E0641C2078C1
:104C7000722818D006DC622809D066280BD06E286E
:104C80007ED10CE0742812D07528F9D113E00820E9
:104C900005F8010B7FE00C2005F8010B7BE00A20F2
:104CA00005F8010B77E00D2005F8010B73E00920F2
:104CB00005F8010B6FE0601CFFF719FF0646241D85
:104CC000B6F55C4F02D3B6F5604F00D306B962E08B
:104CD000B6F5584F1CD3B6F55C4F19D260785C28F6
:104CE00002D1A078752800D055E0E01CFFF7FFFE48
:104CF0008246A41DBAF55C4F02D3BAF5604F00D3CB
:104D000049E0C6F30901504661F39F2000F5803663
:104D10000427802E01D2012708E0B6F5006F01D2EA
:104D2000022703E0B6F5803F00D203273D44012F60
:104D300020D0022F15D0032F0AD0042F24D106F043
:104D4000BF0040F08001681E05460170B60900BF33
:104D500006F0BF0040F08001681E05460170B609EC
:104D600000BF06F0BF0040F08001681E05460170DC
:104D7000B60900BF3548C05D3043C1B2681E00E0CF
:104D800005E00546017000BF00BF3D4403E0207808
:104D900005F8010B00BF00BF641C2078222803D057
:104DA000207800287FF45AAF00202870207822282D
:104DB00000D1641CCBF810900420CBF80C002046E6
:104DC0002EE72DE9F05F804689460027BB46454621
:104DD00011E02878002802DD2878202805DB2878D3
:104DE000222802D028785C2801D1012000E0002090
:104DF00040EA0B0B6D1C28780028EAD1BBF1000FAC
:104E00003ED1A5EB0807B9F1000F21D0F91C4846A7
:104E1000FFF763FD064620E06000002025640000E7
:104E20000000B03C44F3C2E4E4E9634C252E306654
:104E3000000000008DEDB5A0F7C6B03E65CDCD41B8
:104E400025650000256600005C0000206C5E0108FE
:104E5000F81CFD4909688847064616B90020BDE8D8
:104E6000F09F3446222004F8010B4146204601F011
:104E700050F92220E0550021781C21543046EEE7FD
:104E8000B8F1000F16D1B9F1000F05D00321484643
:104E9000FFF723FD064604E00320EB490968884735
:104EA00006460EB90020DAE7E8A1304601F031F9F4
:104EB0003046D4E745460BE05146E5A001F018F92D
:104EC00008B17F1C03E0BAF1200F00DA7F1D6D1CD2
:104ED00095F800A0BAF1000F02D0781C071EEBD1A4
:104EE000B9F1000F05D0F91C4846FFF7F6FC06465D
:104EF00004E0F81CD4490968884706460EB900202A
:104F0000ADE734464546222004F8010B47E02878F7
:104F10001F280ADD2878222807D028785C2804D0AA
:104F200015F8010B04F8010B39E05C2004F8010BC3
:104F300015F8011B8A460C2919D006DC082912D065
:104F4000092920D00A2922D115E00D2917D02229BC
:104F500005D05C291BD15C2004F8010B1EE0222047
:104F600004F8010B1AE0622004F8010B16E0662039
:104F700004F8010B12E06E2004F8010B0EE0722021
:104F800004F8010B0AE0742004F8010B06E0524615
:104F9000B1A1204601F0C0FC641D00BF00BF28780D
:104FA0000028B4D1222004F8010B002004F8010BE2
:104FB000304654E770B504460D4629462069FFF790
:104FC00000FF70BD00E0401C20B1017811B10178F4
:104FD0002029F8DD70472DE9F04706460C46207879
:104FE0007B2804D09E4804600020BDE8F08706209E
:104FF000F060601CFFF7E6FF044620787D2801D1B1
:10500000601CF2E7FFF74DFB0546B060B06808B9D9
:105010000020EAE72046FFF7D5FF804641462846B4
:10502000FFF7EFFD0746FFF7CDFF04460CB9002060
:10503000DBE7286928620020286120783A2803D01D
:10504000874804600020D0E7601CFFF7BBFF804664
:105050004146284600F099F80746FFF7B3FF04469B
:105060000CB90020C1E731E0FFF71BFB071E00D1A0
:10507000BBE72F607D603D46601CFFF7A3FF8146C4
:1050800049462846FFF7BDFD8046FFF79BFF0446D3
:105090000CB90020A9E7286928620020286120783F
:1050A0003A2803D06E48046000209EE7601CFFF79A
:1050B00089FF81464946284600F067F88046FFF799
:1050C00081FF04460CB900208FE700BF20782C2810
:1050D000CAD020787D2801D1601C86E76048046032
:1050E000002082E72DE9F04705460C4620785B2832
:1050F00004D05B4804600020BDE8F0870520E8602C
:10510000601CFFF75FFF044620785D2801D1601C1A
:10511000F2E7FFF7C6FA0646A860A86808B90020BB
:10512000EAE72046FFF74EFF80464146304600F052
:105130002CF80746FFF746FF04460CB90020DBE7D2
:1051400017E0FFF7AEFA071E00D1D5E737607E60A3
:105150003E46601CFFF736FF81464946304600F068
:1051600014F88046FFF72EFF04460CB90020C3E771
:1051700000BF20782C28E4D020785D2801D1601C65
:10518000BAE7374804600020B6E770B505460C461C
:105190000CB9002070BD042232A1204600F0C2FFED
:1051A00018B90220E860201DF4E705222FA120464F
:1051B00000F0B8FF18B90020E860601DEAE704229B
:1051C0002CA1204600F0AEFF20B90120E860686104
:1051D000201DDFE72078222804D121462846FFF74A
:1051E00010FDD7E720782D2805D02078302807DB60
:1051F0002078392804DC21462846FFF788FAC9E7D9
:1052000020785B2804D121462846FFF76BFFC1E7D1
:1052100020787B2804D121462846FFF7DCFEB9E739
:105220000F4804600020B5E72DE9F04780460D46A1
:1052300016460024FFF735FA0746002008490860A3
:10524000E7B9BDE8F08700006000002022220000DE
:10525000225C080C0A0D0900752530347800000026
:105260005C0000206E756C6C0000000066616C7361
:105270006500000074727565000000004046FFF78D
:10528000A1FE814649463846FFF77FFF04462CB908
:105290003846FFF713FA0020BDE8F08766B12046D4
:1052A000FFF790FE0446207830B13846FFF706FA43
:1052B000FE4804600020EFE705B12C603846EBE7BC
:1052C00010B50446002211462046FFF7ADFF10BD81
:1052D0002DE9FF4F89B0884616461F4600200890EA
:1052E000079006904FF0070A00250998D0F808901B
:1052F000002002900190009004E00298401C02906F
:10530000D9F80090B9F1000FF7D10298002835D1F3
:1053100057B116B108F1040000E0032001463846F9
:10532000FFF7DBFA069009E016B108F1040100E08E
:1053300003210846DE49096888470690069818B98F
:1053400000200DB0BDE8F08F069C7B2004F8010B17
:1053500066B10A2004F8010B002503E0092004F8D7
:10536000010B6D1CA8F10100A842F7DC7D2004F8B8
:10537000010B002004F8010B0698E2E7002F77D01C
:10538000BD680EB1022000E0012082460AF1010151
:105390003846FFF7A2FA04460CB90020D1E77B207B
:1053A00004F8010B16B10A2004F8010B002020704C
:1053B000B8685044B8600998D0F8089008F101081E
:1053C00068E0B6B141463846FFF787FA04460CB9A3
:1053D0000020B6E70020039005E0092004F8010B47
:1053E0000398401C039003984045F6DBB86840449E
:1053F000B8603946D9F82000FFF7E3FC3846FFF7DC
:10540000A0FAB8600EB1022000E0012082465146A9
:105410003846FFF762FA04460CB9002091E73A20BB
:1054200004F8010B16B1092004F8010BB8685044C8
:10543000B8603B4632464146484600F078FA384666
:10544000FFF77FFAB8600EB1012000E00020D9F824
:10545000001009B1012100E0002100EB010A0AF16E
:1054600001013846FFF739FA044614B9002068E70D
:1054700034E0D9F8000010B12C2004F8010B16B16B
:105480000A2004F8010B00202070B8685044B8606E
:10549000D9F80090B9F1000F93D116B108F10100CD
:1054A00000E0022001463846FFF717FA04460CB91F
:1054B000002046E74EB1002503E0092004F8010B67
:1054C0006D1CA8F10100A842F7DC7D2004F8010B57
:1054D0000020207038682844069005E10299880071
:1054E0007349096888470890089808B9002028E798
:1054F000029988006E49096888470790079828B97B
:105500006C4908980968884700201AE702988100CA
:10551000089800F0D0FD02988100079800F0CBFDBC
:105520000998D0F8089008F1010806B1C2442EE0AD
:105530000021D9F82000FFF744FC0490079941F8B6
:105540002500002332464146484600F0F0F929463E
:105550006D1C0590089A42F82100049898B10598AE
:1055600088B1059800F0CEFD8346049800F0CAFD8E
:105570000BEB0001891C16B108F1020000E00020CD
:105580000844824401E001200190D9F80090B9F16B
:10559000000FCDD1019820B9504645490968884788
:1055A0000690069808B901200190019818B30025CB
:1055B00014E0079850F8250028B1079951F8250004
:1055C0003C4909688847089850F8250028B108998F
:1055D00051F825003749096888476D1C02988542B3
:1055E000E7DB344907980968884732490898096811
:1055F00088470020A5E67B21069801700698441C88
:1056000016B10A2004F8010B00202070002548E0A4
:105610005EB10020039005E0092004F8010B039817
:10562000401C039003984045F6DB079951F825008C
:1056300000F068FD0090079850F825102046009A69
:1056400000F020FD009804443A2004F8010B16B144
:10565000092004F8010B089850F82510204600F0A6
:1056600058FD089951F8250000F04CFD04440298BB
:10567000401EA84202D02C2004F8010B16B10A20CB
:1056800004F8010B00202070079951F82500094902
:1056900009688847089951F825000649096888472C
:1056A0006D1C02988542B3DB024905E05C000020D6
:1056B0006000002064000020079809688847F749C7
:1056C0000898096888474EB1002503E0092004F8CE
:1056D000010B6D1CA8F10100A842F7DC7D2004F845
:1056E000010B002004F8010B06982AE62DE9FF4F74
:1056F00085B092461E464FF0000B0520039005989A
:10570000D0F80880D946002500200290019003E0DF
:1057100009F10109D8F80080B8F1000FF8D1B9F10A
:10572000000F16D12EB103213046FFF7D6F883467D
:1057300004E00320DA49096888478346BBF1000F7B
:1057400003D0D8A1584600F0E4FC584609B0BDE8A3
:10575000F08F002E57D0B56801213046FFF7BDF815
:1057600004460CB90020F1E75B202070B068401CB3
:10577000B0600598D0F808802EE03346524606996E
:10578000491C404600F0D3F83046FFF7DAF8B06025
:10579000D8F80000F0B1BAF1000F01D0022000E00B
:1057A000012003900399491C3046FFF796F8044600
:1057B0000CB90020CAE72C2004F8010BBAF1000F45
:1057C00002D0202004F8010B00202070B16803985B
:1057D0000844B060D8F80080B8F1000F02D00298F9
:1057E0000028CAD002213046FFF777F804460CB9EA
:1057F0000020ABE75D2004F8010B0020207030682A
:1058000000EB050B91E04FEA8900A549096888473C
:1058100007460FB9002099E74FEA8901384600F0A2
:105820004AFC0598D0F8088021E0002352460699EA
:10583000491C404600F07BF8049029466D1C0498F2
:1058400047F82100049870B1049800F05BFC801CBC
:10585000BAF1000F01D0012100E0002101440398BA
:105860000844039001E001200290D8F80080B8F1CC
:10587000000F02D002980028D7D0029820B988499A
:105880000398096888478346BBF1000F01D10120C6
:105890000290029890B1002508E057F8250020B149
:1058A00057F825007D49096888476D1C4D45F4DB94
:1058B00038467A4909688847002047E75B208BF81B
:1058C00000000BF1010400202070002521E057F8B2
:1058D000250000F017FC019057F825102046019A8A
:1058E00000F0D0FB01980444A9F10100A8420AD0BD
:1058F0002C2004F8010BBAF1000F02D0202004F88C
:10590000010B0020207057F825006449096888477A
:105910006D1C4D45DBDB38466049096888475D20D2
:1059200004F8010B002004F8010B58460EE72DE99E
:10593000F04104460F4690461D46002614B900204B
:10594000BDE8F081002D49D0207B072845D2DFE853
:1059500000F0101C04282E343C0005212846FEF7D8
:10596000BCFF064626B1AFF20471304600F0D1FB11
:1059700033E006212846FEF7B0FF064626B1AFF217
:105980001471304600F0C5FB27E005212846FEF7DC
:10599000A4FF064626B1AFF22471304600F0B9FBF1
:1059A0001BE029462046FEF7DCFF064615E02946A7
:1059B0002046FFF7FFFA06460FE02B4642463946DF
:1059C0002046FFF793FE064607E02B46424639463F
:1059D0002046FFF77DFC064600BF37E0207B072806
:1059E00033D2DFE800F00A1004161C222A00AFF2BE
:1059F0008C70FEF72AFE064627E0AFF29070FEF7A5
:105A000024FE064621E0AFF29470FEF71EFE064625
:105A10001BE000212046FEF7A4FF064615E000210A
:105A20002046FFF7C7FA06460FE0002342463946F4
:105A30002046FFF75BFE064607E000234246394654
:105A40002046FFF745FC064600BF00BF304677E71B
:105A500010B504460023012219462046FFF767FFD0
:105A600010BD10B5044600231A4619462046FFF71C
:105A70005EFF10BDFEB505460C4616462046084999
:105A80000968884700900194002002906B463246D6
:105A900000212846FFF74BFFFEBD000064000020F8
:105AA000600000205B5D000001468A68002001E084
:105AB000401C1268002AFBD170470246906801E042
:105AC000491E006808B10029FADC704770B5054628
:105AD0000E46AC6800E024682CB13146206AFEF71F
